:02000000342E9C
:06000600000000000800EC
:10000C000F3083120313FC004730FD00FD0B0C284E
:0A001C00FC0B0C2800000000080097
:0E002600213083120313FD00FD0B1728080084
:1000340083160313EF1B21288312881223288312AB
:10004400881683166F1B2928831208122B28831203
:1000540008168316EF1A3128831288113328831265
:10006400881583166F1A3928831208113B288312C6
:10007400081566183F28081440280810881403201F
:1000840088108316EF194928831288124B2883128B
:10009400881683166F195128831208125328831265
:1000A40008168316EF185928831288115B288312C7
:1000B400881583166F186128831208116328831228
:1000C400081566186728081468280810881403207F
:0E00D4008810661C6F28062070281320080074
:1000E200710DF80DF90D7408F8027508031C750FEF
:1000F200F902F00DF10D0F30FC00710DF80DF90D44
:100102007408701C8A28F8027508031C750FF9021E
:100112008F28F80775080318750FF907F00DF10D10
:10012200FC0B7E2870189B287408F80775080318C2
:08013200750FF9070000080039
:10013A0083120313661083166E08EF001A206614E2
:02014A000800AB
:0E014C008312031365088A006408820008000D
:10015A00BF28803083160313EA00D228C030EA0091
:10016A00D2289430EA00D228D430EA00D22880304B
:10017A00EA00D228831603136A08013A0319AE2843
:10018A006A08023A0319B3286A08033A0319B62817
:10019A006A08043A0319B928BC286B03F0006A08F4
:1001AA00F0077008EA008312661470088316EF00DD
:1001BA001A20661083166C08EF001A2066140800CD
:1001CA00831603136A08F2007208F000F20A700834
:1001DA00840000080319F228E9286A087202F0006C
:0C01EA000130F002F101031CF1030800D9
:1001F6000D29803083160313EA002029C030EA0057
:1002060020299430EA002029D430EA0020298030C1
:10021600EA002029831603136A08013A0319FC2809
:100226006A08023A031901296A08033A03190429DC
:100236006A08043A031907290A296B03F0006A08B9
:10024600F0077008EA007008EF001A20661083169F
:10025600ED016D086C078400000803193B296D0841
:100266006C0784000008EE009D208316ED0A2C29F9
:060276008312661408006B
:10027C00831203137408003A031D4D297508003AC4
:10028C00031D4D29FF30F0007F30F100A6298312A9
:10029C000313FD01F901F80171087004031900340E
:1002AC0071087506FA00FA1BFD09FB01F51F63299D
:1002BC00F409F509F40A0319F50AF11F6A29F00982
:1002CC00F109F00A0319F10A71087504FA00FA1B16
:1002DC007F2971207B189229FD1F0034F009F10948
:1002EC00F00A0319F10AF809F909F80A0319F90ACD
:1002FC000034F51F8E29F11B8A297108F90070084A
:10030C00F800F101F0017229F101F001F00A00345A
:10031C00F109F009FB0A6F29F80A0319F90A7408A4
:10032C007802031D722975087902031D7229F901DF
:10033C00F801F00A0319F10AF11F72290000FF34C9
:02034C000800A7
:10034E00543083160313CE006830CF006130D000D6
:10035E006E30D1006B30D2002030D3005930D40033
:10036E006F30D5007530D6002030D7006630D800FB
:10037E006F30D9007230DA002030DB005630DC00EE
:10038E006F30DD007430DE006930DF006E30E0006B
:10039E006730E1002130E200E3018312E901EA0156
:1003AE00CE308316EA00E520803083126A06F20012
:1003BE00803071067202031DE62970086902031867
:1003CE00662A01308316EA000130EB00B130EC00F2
:1003DE00FB20EB01EC0180306C06F00080307002E7
:1003EE00031DFB2910306B020318562A6B08690790
:1003FE00ED006A080318013E6C07EE00CE3083163E
:10040E00EA00E520803083126E06F200803071061D
:10041E007202031D142A70086D020318562A6B0807
:10042E006907ED006A080318013E6C07EE00CE3036
:10043E008316EA00E5207008F4007108F5008312B7
:10044E006D08F0006E08F1003E217808F000790882
:10045E00F1007008CE3E840000088316EC000130D7
:10046E00EA0083126B0A8316EB00AD20023083166E
:10047E00EA000130EB003430EC00FB200230831632
:10048E00EA000B30EB00831267083F3E8400000841
:10049E008316EC00AD20EB0A0319EC0AF2290330A7
:1004AE00FB000830FC007730FD00FD0B5C2AFC0BD6
:1004BE005C2AFB0B5C2AE90A0319EA0AD7290B30DE
:1004CE00FB002630FC005D30FD00FD0B6C2AFC0BA2
:1004DE006C2AFB0B6C2A0000000001308316EF0023
:0404EE001A200800C8
:1004F200573083160313CE006530CF006C30D00026
:100502006330D1006F30D2006D30D3006530D4003B
:100512002030D5007430D6006F30D7002030D8009C
:100522004530D9006C30DA006530DB006330DC0026
:100532007430DD007230DE006130DF005630E000E2
:100542006F30E1007430E2006530E3002030E400F7
:100552002030E5002030E600E70150308312031717
:1005620090007230910065309200733093007330C6
:1005720094002030950062309600753097007430F8
:100582009800743099006F309A006E309B002030D2
:100592009C0074309D006F309E0020309F007630AA
:1005A200A0006F30A1007430A2006530A30020309B
:1005B200A4006630A5006F30A6007230A70020307C
:1005C200A8004330A9006130AA006E30AB0064304D
:1005D200AC006930AD006430AE006130AF00743001
:1005E200B0006530B1007330B2002030B30031305A
:1005F200B4002D30B5003630B6002030B7002030C0
:10060200B8002030B900BA01CE3083160313EA00D5
:10061200E5207008E8007108E9001030EA00E520E2
:1006220080307106F200803069067202031D1B2BB6
:10063200680870020318262BCE30EA00E520700805
:100642008312E7007108E8002F2B10308316EA00AE
:10065200E52070088312E7007108E8006708ED00E2
:100662006808EE00E901EA010F306D02F100003086
:10067200031C013E6E02F20080306A06F0008030F8
:1006820072067002031D472B710869020318032CBE
:10069200EB01EC0180306C06F00080307002031D2B
:1006A200542B10306B020318952B6B0869078316C5
:1006B200E80083126A080318013E6C078316E900FA
:1006C200CE30EA00E52080306906F2008030710603
:1006D2007202031D6E2B700868020318872B01300B
:1006E200EA0083126B0A8316EB0083126B08690718
:1006F200F0006A080318013E6C07F1007008CE3E54
:10070200840000088316EC00AD20912B0130831683
:10071200EA0083126B0A8316EB002030EC00AD2056
:10072200EB0A0319EC0A4B2BEB01EC0180306C064F
:10073200F00080307002031DA02B10306B020318F2
:10074200E12B6B0869078316E80083126A08031815
:10075200013E6C078316E9001030EA00E520803084
:100762006906F200803071067202031DBA2B70080E
:1007720068020318D32B0230EA0083126B0A831635
:10078200EB0083126B086907F0006A080318013E48
:100792006C07F1007008103E840000088316EC001C
:1007A200AD20DD2B02308316EA0083126B0A83161A
:1007B200EB002030EC00AD20EB0A0319EC0A972B7A
:1007C2000430FB000C30FC003330FD00FD0BE72B46
:1007D200FC0BE72BFB0BE72B000000000618FE2B9F
:1007E2008618FE2B0619FE2B8619FE2B061AFE2BE7
:1007F200861AFE2B061BFE2BFF2B032CE90A03197C
:06080200EA0A352B080094
:10080800831603138810081008118811081288121B
:1008180083128810081088120812881108110620FF
:10082800062006208815081588140320881006203D
:1008380088140320881006208814032088100620B6
:1008480008118814032088100620881403208810B3
:100858008811881688140320881006208812081525
:100868008814032088100811881403208810062093
:10087800881403208810081588140320881006207F
:10088800081188140320881088160816881508157A
:0C08980088140320881006206614080055
:1008A40083120313EA01EB01FF30EC00FF30ED008B
:1008B400EE01EF0101308316EF001A200130831698
:1008C400EA000130EB002030EC00FB20E801E901F4
:1008D40080306906F00080307002031D732C0630EE
:1008E400680203185B2D02308316EA000130EB0026
:1008F4002930EC00FB2002308316EA000B30EB00B9
:1009040083126808013EF00000300318013E6907B5
:10091400F10070083F3E840000088316EC00AD200F
:1009240002308316EA000C30EB004A30EC00FB2066
:1009340002308316EA000E30EB0083126808F000E0
:100944006908F100F00DF10D70107008670784005C
:100954000008F000840A0008F1006430F40000305C
:10096400F5003E210A30F4000030F5003E217808FD
:10097400F0007908F10070083F3E840000088316F7
:10098400EC00AD2002308316EA000F30EB00831236
:100994006808F0006908F100F00DF10D701070089E
:1009A400670784000008F000840A0008F1000A3098
:1009B400F4000030F5003E210A30F4000030F50068
:1009C4003E217808F0007908F10070083F3E840069
:1009D40000088316EC00AD2002308316EA001030C4
:1009E400EB0083126808F0006908F100F00DF10DC6
:1009F40070107008670784000008F000840A00087B
:100A0400F1000A30F4000030F5003E217808F000CF
:100A14007908F10070083F3E840000088316EC005A
:100A2400AD200B30FB002630FC005D30FD00FD0BDB
:100A3400192DFC0B192DFB0B192D000000000130A2
:100A44008316EF001A206808F0006908F100F00D21
:100A5400F10D70107008670784000008F100840A23
:100A64000008F20080306B06F000803072067002DD
:100A7400031D3E2D71086A020318572D6808F00003
:100A84006908F100F00DF10D70107008670784001B
:100A94000008EA00840A0008EB006808013EEC0044
:100AA40000300318013E6907ED00E80A0319E90A5A
:100AB4006A2CE801E90180306906F0008030700298
:100AC400031D662D063068020318862D6808F000A1
:100AD4006908F100F00DF10D7010700867078400CB
:100AE4000008F100840A0008F20072086B06031D76
:100AF4007D2D6A087106031D822DEE0A0319EF0A83
:100B0400E80A0319E90A5D2D01308316EF001A2063
:100B14008030F00080306F067002031D932D6E0844
:100B2400013C03189E2D01308316EA000130EB00CE
:100B34005430EC00FB201B2EFF306D06031DA42D4A
:100B4400FF306C0603191B2E01308316EA000130B6
:100B5400EB00A030EC00FB2001308316EA001030DB
:100B6400EB0083126C083F3E840000088316EC00FF
:100B7400AD2002308316EA000130EB004C30EC006B
:100B8400FB2002308316EA000830EB006430F400E6
:100B94000030F50083126A08F0006B08F1003E2172
:100BA4000A30F4000030F5003E217808F00079089E
:100BB400F10070083F3E840000088316EC00AD206D
:100BC40002308316EA000930EB000A30F4000030EA
:100BD400F50083126A08F0006B08F1003E210A3028
:100BE400F4000030F5003E217808F0007908F100A7
:100BF40070083F3E840000088316EC00AD200230EC
:100C04008316EA000A30EB000A30F4000030F500E5
:100C140083126A08F0006B08F1003E217808F000A6
:100C24007908F10070083F3E840000088316EC0048
:100C3400AD206630FB007630FC00C130FD00FD0BBA
:0C0C4400212EFC0B212EFB0B212E0800A2
:100C5000A6208A110A128000840AE40A0319E50A10
:080C6000F003031D282E08001B
:100C6800202783160313C201C301C401C501C601AD
:100C7800C701C801C901CA01CB01CC01CD010424B7
:100C88000C308316EF001A208316061486140615F6
:100C980086150616861606177922061C602E8316F8
:100CA800C20A0319C30A01308312E7000030E800C2
:100CB800A721061C602E5D2E861C6F2E8316C40A83
:100CC8000319C50A02308312E7000030E800A721A3
:100CD800861C6F2E6C2E061D7E2E8316C60A0319DF
:100CE800C70A03308312E7000030E800A721061D79
:100CF8007E2E7B2E861D8D2E8316C80A0319C90ADF
:100D080004308312E7000030E800A721861D8D2EED
:100D18008A2E061E9C2E8316CA0A0319CB0A053092
:100D28008312E7000030E800A721061E9C2E992EAA
:100D3800861EAB2E8316CC0A0319CD0A0630831201
:100D4800E7000030E800A721861EAB2EA82E061F5C
:100D5800B32EC230E7005224061FB32EB02E502EF9
:020D6800B42EA7
:100E400020308400443083120313F000BA30E400F1
:100E50000630E5002826A03084002230F000FE3065
:0A0E6000E4000630E5002826080033
:100D740052346534733475346C34743473343A34A3
:020D8400003439
:100D8600433461346E3464346934643461347434A5
:060D960065342034003436
:100D9C00433461346E34643469346434613474348F
:060DAC0065342034003420
:100DB20030343134323433343434353436343734F5
:060DC2003834393400341E
:040DC8003D34003482
:100DCC0056346F347434653473343A34203400340C
:100DDC004E346F34203463346C3465346134723483
:100DEC002034773469346E346E34653472340034A4
:100DFC00573469346E346E34653472342034433471
:100E0C0061346E34643469346434613474346534FC
:020E1C000034A0
:100E1E002034203420342034203420342034203424
:100E2E002034203420342034203420342034203414
:020E3E0000347E
:02400E004A2F37
:00000001FF
